{
  "_format": "hh-sol-artifact-1",
  "contractName": "ADHDToken",
  "sourceName": "contracts/ADHDToken.sol",
  "abi": [
    {
      "inputs": [
        {
          "internalType": "address",
          "name": "initialOwner",
          "type": "address"
        }
      ],
      "stateMutability": "nonpayable",
      "type": "constructor"
    },
    {
      "inputs": [
        {
          "internalType": "address",
          "name": "spender",
          "type": "address"
        },
        {
          "internalType": "uint256",
          "name": "allowance",
          "type": "uint256"
        },
        {
          "internalType": "uint256",
          "name": "needed",
          "type": "uint256"
        }
      ],
      "name": "ERC20InsufficientAllowance",
      "type": "error"
    },
    {
      "inputs": [
        {
          "internalType": "address",
          "name": "sender",
          "type": "address"
        },
        {
          "internalType": "uint256",
          "name": "balance",
          "type": "uint256"
        },
        {
          "internalType": "uint256",
          "name": "needed",
          "type": "uint256"
        }
      ],
      "name": "ERC20InsufficientBalance",
      "type": "error"
    },
    {
      "inputs": [
        {
          "internalType": "address",
          "name": "approver",
          "type": "address"
        }
      ],
      "name": "ERC20InvalidApprover",
      "type": "error"
    },
    {
      "inputs": [
        {
          "internalType": "address",
          "name": "receiver",
          "type": "address"
        }
      ],
      "name": "ERC20InvalidReceiver",
      "type": "error"
    },
    {
      "inputs": [
        {
          "internalType": "address",
          "name": "sender",
          "type": "address"
        }
      ],
      "name": "ERC20InvalidSender",
      "type": "error"
    },
    {
      "inputs": [
        {
          "internalType": "address",
          "name": "spender",
          "type": "address"
        }
      ],
      "name": "ERC20InvalidSpender",
      "type": "error"
    },
    {
      "inputs": [
        {
          "internalType": "address",
          "name": "owner",
          "type": "address"
        }
      ],
      "name": "OwnableInvalidOwner",
      "type": "error"
    },
    {
      "inputs": [
        {
          "internalType": "address",
          "name": "account",
          "type": "address"
        }
      ],
      "name": "OwnableUnauthorizedAccount",
      "type": "error"
    },
    {
      "anonymous": false,
      "inputs": [
        {
          "indexed": true,
          "internalType": "address",
          "name": "owner",
          "type": "address"
        },
        {
          "indexed": true,
          "internalType": "address",
          "name": "spender",
          "type": "address"
        },
        {
          "indexed": false,
          "internalType": "uint256",
          "name": "value",
          "type": "uint256"
        }
      ],
      "name": "Approval",
      "type": "event"
    },
    {
      "anonymous": false,
      "inputs": [
        {
          "indexed": true,
          "internalType": "address",
          "name": "previousOwner",
          "type": "address"
        },
        {
          "indexed": true,
          "internalType": "address",
          "name": "newOwner",
          "type": "address"
        }
      ],
      "name": "OwnershipTransferred",
      "type": "event"
    },
    {
      "anonymous": false,
      "inputs": [
        {
          "indexed": true,
          "internalType": "address",
          "name": "user",
          "type": "address"
        },
        {
          "indexed": false,
          "internalType": "uint256",
          "name": "amount",
          "type": "uint256"
        },
        {
          "indexed": false,
          "internalType": "string",
          "name": "activity",
          "type": "string"
        }
      ],
      "name": "RewardMinted",
      "type": "event"
    },
    {
      "anonymous": false,
      "inputs": [
        {
          "indexed": true,
          "internalType": "address",
          "name": "user",
          "type": "address"
        },
        {
          "indexed": false,
          "internalType": "uint256",
          "name": "amount",
          "type": "uint256"
        }
      ],
      "name": "Staked",
      "type": "event"
    },
    {
      "anonymous": false,
      "inputs": [
        {
          "indexed": true,
          "internalType": "address",
          "name": "from",
          "type": "address"
        },
        {
          "indexed": true,
          "internalType": "address",
          "name": "to",
          "type": "address"
        },
        {
          "indexed": false,
          "internalType": "uint256",
          "name": "value",
          "type": "uint256"
        }
      ],
      "name": "Transfer",
      "type": "event"
    },
    {
      "anonymous": false,
      "inputs": [
        {
          "indexed": true,
          "internalType": "address",
          "name": "user",
          "type": "address"
        },
        {
          "indexed": false,
          "internalType": "uint256",
          "name": "amount",
          "type": "uint256"
        }
      ],
      "name": "Unstaked",
      "type": "event"
    },
    {
      "inputs": [],
      "name": "EXERCISE_REWARD",
      "outputs": [
        {
          "internalType": "uint256",
          "name": "",
          "type": "uint256"
        }
      ],
      "stateMutability": "view",
      "type": "function"
    },
    {
      "inputs": [],
      "name": "INITIAL_SUPPLY",
      "outputs": [
        {
          "internalType": "uint256",
          "name": "",
          "type": "uint256"
        }
      ],
      "stateMutability": "view",
      "type": "function"
    },
    {
      "inputs": [],
      "name": "MAX_SUPPLY",
      "outputs": [
        {
          "internalType": "uint256",
          "name": "",
          "type": "uint256"
        }
      ],
      "stateMutability": "view",
      "type": "function"
    },
    {
      "inputs": [],
      "name": "NUTRITION_REWARD",
      "outputs": [
        {
          "internalType": "uint256",
          "name": "",
          "type": "uint256"
        }
      ],
      "stateMutability": "view",
      "type": "function"
    },
    {
      "inputs": [],
      "name": "SLEEP_REWARD",
      "outputs": [
        {
          "internalType": "uint256",
          "name": "",
          "type": "uint256"
        }
      ],
      "stateMutability": "view",
      "type": "function"
    },
    {
      "inputs": [],
      "name": "STREAK_BONUS",
      "outputs": [
        {
          "internalType": "uint256",
          "name": "",
          "type": "uint256"
        }
      ],
      "stateMutability": "view",
      "type": "function"
    },
    {
      "inputs": [
        {
          "internalType": "address",
          "name": "owner",
          "type": "address"
        },
        {
          "internalType": "address",
          "name": "spender",
          "type": "address"
        }
      ],
      "name": "allowance",
      "outputs": [
        {
          "internalType": "uint256",
          "name": "",
          "type": "uint256"
        }
      ],
      "stateMutability": "view",
      "type": "function"
    },
    {
      "inputs": [
        {
          "internalType": "address",
          "name": "spender",
          "type": "address"
        },
        {
          "internalType": "uint256",
          "name": "value",
          "type": "uint256"
        }
      ],
      "name": "approve",
      "outputs": [
        {
          "internalType": "bool",
          "name": "",
          "type": "bool"
        }
      ],
      "stateMutability": "nonpayable",
      "type": "function"
    },
    {
      "inputs": [
        {
          "internalType": "address",
          "name": "account",
          "type": "address"
        }
      ],
      "name": "balanceOf",
      "outputs": [
        {
          "internalType": "uint256",
          "name": "",
          "type": "uint256"
        }
      ],
      "stateMutability": "view",
      "type": "function"
    },
    {
      "inputs": [],
      "name": "decimals",
      "outputs": [
        {
          "internalType": "uint8",
          "name": "",
          "type": "uint8"
        }
      ],
      "stateMutability": "view",
      "type": "function"
    },
    {
      "inputs": [
        {
          "internalType": "address",
          "name": "user",
          "type": "address"
        }
      ],
      "name": "getStakedBalance",
      "outputs": [
        {
          "internalType": "uint256",
          "name": "",
          "type": "uint256"
        }
      ],
      "stateMutability": "view",
      "type": "function"
    },
    {
      "inputs": [
        {
          "internalType": "address",
          "name": "user",
          "type": "address"
        }
      ],
      "name": "getTotalEarned",
      "outputs": [
        {
          "internalType": "uint256",
          "name": "",
          "type": "uint256"
        }
      ],
      "stateMutability": "view",
      "type": "function"
    },
    {
      "inputs": [
        {
          "internalType": "address",
          "name": "",
          "type": "address"
        }
      ],
      "name": "lastActivity",
      "outputs": [
        {
          "internalType": "uint256",
          "name": "",
          "type": "uint256"
        }
      ],
      "stateMutability": "view",
      "type": "function"
    },
    {
      "inputs": [
        {
          "internalType": "address",
          "name": "user",
          "type": "address"
        },
        {
          "internalType": "string",
          "name": "activity",
          "type": "string"
        },
        {
          "internalType": "uint256",
          "name": "score",
          "type": "uint256"
        }
      ],
      "name": "mintReward",
      "outputs": [],
      "stateMutability": "nonpayable",
      "type": "function"
    },
    {
      "inputs": [],
      "name": "name",
      "outputs": [
        {
          "internalType": "string",
          "name": "",
          "type": "string"
        }
      ],
      "stateMutability": "view",
      "type": "function"
    },
    {
      "inputs": [],
      "name": "owner",
      "outputs": [
        {
          "internalType": "address",
          "name": "",
          "type": "address"
        }
      ],
      "stateMutability": "view",
      "type": "function"
    },
    {
      "inputs": [],
      "name": "renounceOwnership",
      "outputs": [],
      "stateMutability": "nonpayable",
      "type": "function"
    },
    {
      "inputs": [
        {
          "internalType": "uint256",
          "name": "amount",
          "type": "uint256"
        }
      ],
      "name": "stake",
      "outputs": [],
      "stateMutability": "nonpayable",
      "type": "function"
    },
    {
      "inputs": [
        {
          "internalType": "address",
          "name": "",
          "type": "address"
        }
      ],
      "name": "stakedBalance",
      "outputs": [
        {
          "internalType": "uint256",
          "name": "",
          "type": "uint256"
        }
      ],
      "stateMutability": "view",
      "type": "function"
    },
    {
      "inputs": [],
      "name": "symbol",
      "outputs": [
        {
          "internalType": "string",
          "name": "",
          "type": "string"
        }
      ],
      "stateMutability": "view",
      "type": "function"
    },
    {
      "inputs": [
        {
          "internalType": "address",
          "name": "",
          "type": "address"
        }
      ],
      "name": "totalEarned",
      "outputs": [
        {
          "internalType": "uint256",
          "name": "",
          "type": "uint256"
        }
      ],
      "stateMutability": "view",
      "type": "function"
    },
    {
      "inputs": [],
      "name": "totalSupply",
      "outputs": [
        {
          "internalType": "uint256",
          "name": "",
          "type": "uint256"
        }
      ],
      "stateMutability": "view",
      "type": "function"
    },
    {
      "inputs": [
        {
          "internalType": "address",
          "name": "to",
          "type": "address"
        },
        {
          "internalType": "uint256",
          "name": "value",
          "type": "uint256"
        }
      ],
      "name": "transfer",
      "outputs": [
        {
          "internalType": "bool",
          "name": "",
          "type": "bool"
        }
      ],
      "stateMutability": "nonpayable",
      "type": "function"
    },
    {
      "inputs": [
        {
          "internalType": "address",
          "name": "from",
          "type": "address"
        },
        {
          "internalType": "address",
          "name": "to",
          "type": "address"
        },
        {
          "internalType": "uint256",
          "name": "value",
          "type": "uint256"
        }
      ],
      "name": "transferFrom",
      "outputs": [
        {
          "internalType": "bool",
          "name": "",
          "type": "bool"
        }
      ],
      "stateMutability": "nonpayable",
      "type": "function"
    },
    {
      "inputs": [
        {
          "internalType": "address",
          "name": "newOwner",
          "type": "address"
        }
      ],
      "name": "transferOwnership",
      "outputs": [],
      "stateMutability": "nonpayable",
      "type": "function"
    },
    {
      "inputs": [
        {
          "internalType": "uint256",
          "name": "amount",
          "type": "uint256"
        }
      ],
      "name": "unstake",
      "outputs": [],
      "stateMutability": "nonpayable",
      "type": "function"
    }
  ],
  "bytecode": "0x60806040523480156200001157600080fd5b50604051620015f3380380620015f38339810160408190526200003491620002b4565b806040518060400160405280600a81526020016920a22422102a37b5b2b760b11b815250604051806040016040528060048152602001631051121160e21b81525081600390816200008691906200038b565b5060046200009582826200038b565b5050506001600160a01b038116620000c857604051631e4fbdf760e01b8152600060048201526024015b60405180910390fd5b620000d381620000f1565b50620000ea8169d3c21bcecceda100000062000143565b506200047f565b600580546001600160a01b038381166001600160a01b0319831681179093556040519116919082907f8be0079c531659141344cd1fd0a4f28419497f9722a3daafe3b4186f6b6457e090600090a35050565b6001600160a01b0382166200016f5760405163ec442f0560e01b815260006004820152602401620000bf565b6200017d6000838362000181565b5050565b6001600160a01b038316620001b0578060026000828254620001a4919062000457565b90915550620002249050565b6001600160a01b03831660009081526020819052604090205481811015620002055760405163391434e360e21b81526001600160a01b03851660048201526024810182905260448101839052606401620000bf565b6001600160a01b03841660009081526020819052604090209082900390555b6001600160a01b038216620002425760028054829003905562000261565b6001600160a01b03821660009081526020819052604090208054820190555b816001600160a01b0316836001600160a01b03167fddf252ad1be2c89b69c2b068fc378daa952ba7f163c4a11628f55a4df523b3ef83604051620002a791815260200190565b60405180910390a3505050565b600060208284031215620002c757600080fd5b81516001600160a01b0381168114620002df57600080fd5b9392505050565b634e487b7160e01b600052604160045260246000fd5b600181811c908216806200031157607f821691505b6020821081036200033257634e487b7160e01b600052602260045260246000fd5b50919050565b601f8211156200038657600081815260208120601f850160051c81016020861015620003615750805b601f850160051c820191505b8181101562000382578281556001016200036d565b5050505b505050565b81516001600160401b03811115620003a757620003a7620002e6565b620003bf81620003b88454620002fc565b8462000338565b602080601f831160018114620003f75760008415620003de5750858301515b600019600386901b1c1916600185901b17855562000382565b600085815260208120601f198616915b82811015620004285788860151825594840194600190910190840162000407565b5085821015620004475787850151600019600388901b60f8161c191681555b5050505050600190811b01905550565b808201808211156200047957634e487b7160e01b600052601160045260246000fd5b92915050565b611164806200048f6000396000f3fe608060405234801561001057600080fd5b506004361061018e5760003560e01c8063715018a6116100de578063a9059cbb11610097578063dd62ed3e11610071578063dd62ed3e1461037a578063dfe5ba7c146103b3578063f07e96b3146103bc578063f2fde38b146103dc57600080fd5b8063a9059cbb14610355578063af0dd71a14610368578063bcf644751461037157600080fd5b8063715018a6146102e557806383b60d17146102ed5780638da5cb5b146102f6578063937b4b341461031157806395d89b411461033a578063a694fc3a1461034257600080fd5b8063313ce5671161014b5780635cc410db116101255780635cc410db14610269578063602172671461027c578063649aca4a1461029c57806370a08231146102bc57600080fd5b8063313ce5671461021f57806332cb6b0c1461022e5780633a02a42d1461024057600080fd5b806306fdde0314610193578063095ea7b3146101b157806318160ddd146101d457806323b872dd146101e65780632e17de78146101f95780632ff2e9dc1461020e575b600080fd5b61019b6103ef565b6040516101a89190610e64565b60405180910390f35b6101c46101bf366004610e9a565b610481565b60405190151581526020016101a8565b6002545b6040519081526020016101a8565b6101c46101f4366004610ec4565b61049b565b61020c610207366004610f00565b6104bf565b005b6101d869d3c21bcecceda100000081565b604051601281526020016101a8565b6101d86a52b7d2dcc80cd2e400000081565b6101d861024e366004610f19565b6001600160a01b031660009081526006602052604090205490565b61020c610277366004610f4a565b6105dc565b6101d861028a366004610f19565b60066020526000908152604090205481565b6101d86102aa366004610f19565b60086020526000908152604090205481565b6101d86102ca366004610f19565b6001600160a01b031660009081526020819052604090205490565b61020c6107d8565b6101d861032081565b6005546040516001600160a01b0390911681526020016101a8565b6101d861031f366004610f19565b6001600160a01b031660009081526008602052604090205490565b61019b6107ec565b61020c610350366004610f00565b6107fb565b6101c4610363366004610e9a565b6108fa565b6101d861025881565b6101d86101f481565b6101d8610388366004611015565b6001600160a01b03918216600090815260016020908152604080832093909416825291909152205490565b6101d86103e881565b6101d86103ca366004610f19565b60076020526000908152604090205481565b61020c6103ea366004610f19565b610908565b6060600380546103fe90611048565b80601f016020809104026020016040519081016040528092919081815260200182805461042a90611048565b80156104775780601f1061044c57610100808354040283529160200191610477565b820191906000526020600020905b81548152906001019060200180831161045a57829003601f168201915b5050505050905090565b60003361048f818585610946565b60019150505b92915050565b6000336104a9858285610958565b6104b48585856109d6565b506001949350505050565b600081116105145760405162461bcd60e51b815260206004820152601760248201527f43616e6e6f7420756e7374616b65203020746f6b656e7300000000000000000060448201526064015b60405180910390fd5b336000908152600660205260409020548111156105735760405162461bcd60e51b815260206004820152601b60248201527f496e73756666696369656e74207374616b65642062616c616e63650000000000604482015260640161050b565b3360009081526006602052604081208054839290610592908490611092565b909155506105a390503033836109d6565b60405181815233907f0f5bb82176feb1b5e747e28471aa92156a04d9f3ab9f45f28e2d704232b93f75906020015b60405180910390a250565b6105e4610a35565b600a8111156106355760405162461bcd60e51b815260206004820152601e60248201527f53636f7265206d757374206265206265747765656e203020616e642031300000604482015260640161050b565b6001600160a01b0383166106825760405162461bcd60e51b8152602060048201526014602482015273496e76616c69642075736572206164647265737360601b604482015260640161050b565b600061068d83610a62565b9050600061069c8360646110a5565b905060006103e86106ad83856110a5565b6106b791906110bc565b90506106c286610b5a565b156106d6576106d36101f4826110de565b90505b6a52b7d2dcc80cd2e4000000816106ec60025490565b6106f691906110de565b11156107445760405162461bcd60e51b815260206004820152601760248201527f576f756c6420657863656564206d617820737570706c79000000000000000000604482015260640161050b565b61074e8682610b89565b6001600160a01b038616600090815260086020526040812080548392906107769084906110de565b90915550506001600160a01b03861660008181526007602052604090819020429055517f765f02a4009bbabeb5bcacb42308293ab54fa68b299d9cf67bc945e839be9660906107c890849089906110f1565b60405180910390a2505050505050565b6107e0610a35565b6107ea6000610bc3565b565b6060600480546103fe90611048565b600081116108435760405162461bcd60e51b815260206004820152601560248201527443616e6e6f74207374616b65203020746f6b656e7360581b604482015260640161050b565b336000908152602081905260409020548111156108995760405162461bcd60e51b8152602060048201526014602482015273496e73756666696369656e742062616c616e636560601b604482015260640161050b565b6108a43330836109d6565b33600090815260066020526040812080548392906108c39084906110de565b909155505060405181815233907f9e71bc8eea02a63969f509818f2dafb9254532904319f9dbda79b67bd34a5f3d906020016105d1565b60003361048f8185856109d6565b610910610a35565b6001600160a01b03811661093a57604051631e4fbdf760e01b81526000600482015260240161050b565b61094381610bc3565b50565b6109538383836001610c15565b505050565b6001600160a01b0383811660009081526001602090815260408083209386168352929052205460001981146109d057818110156109c157604051637dc7a0d960e11b81526001600160a01b0384166004820152602481018290526044810183905260640161050b565b6109d084848484036000610c15565b50505050565b6001600160a01b038316610a0057604051634b637e8f60e11b81526000600482015260240161050b565b6001600160a01b038216610a2a5760405163ec442f0560e01b81526000600482015260240161050b565b610953838383610cea565b6005546001600160a01b031633146107ea5760405163118cdaa760e01b815233600482015260240161050b565b60008082604051602001610a769190611112565b604051602081830303815290604052805190602001209050604051602001610aac9067657865726369736560c01b815260080190565b604051602081830303815290604052805190602001208103610ad257506103e892915050565b60405168373aba3934ba34b7b760b91b6020820152602901604051602081830303815290604052805190602001208103610b10575061032092915050565b604051640736c6565760dc1b6020820152602501604051602081830303815290604052805190602001208103610b4a575061025892915050565b506101f492915050565b50919050565b6001600160a01b0381166000908152600760205260408120546202a30090610b829042611092565b1092915050565b6001600160a01b038216610bb35760405163ec442f0560e01b81526000600482015260240161050b565b610bbf60008383610cea565b5050565b600580546001600160a01b038381166001600160a01b0319831681179093556040519116919082907f8be0079c531659141344cd1fd0a4f28419497f9722a3daafe3b4186f6b6457e090600090a35050565b6001600160a01b038416610c3f5760405163e602df0560e01b81526000600482015260240161050b565b6001600160a01b038316610c6957604051634a1406b160e11b81526000600482015260240161050b565b6001600160a01b03808516600090815260016020908152604080832093871683529290522082905580156109d057826001600160a01b0316846001600160a01b03167f8c5be1e5ebec7d5bd14f71427d1e84f3dd0314c0f7b2291e5b200ac8c7c3b92584604051610cdc91815260200190565b60405180910390a350505050565b6001600160a01b038316610d15578060026000828254610d0a91906110de565b90915550610d879050565b6001600160a01b03831660009081526020819052604090205481811015610d685760405163391434e360e21b81526001600160a01b0385166004820152602481018290526044810183905260640161050b565b6001600160a01b03841660009081526020819052604090209082900390555b6001600160a01b038216610da357600280548290039055610dc2565b6001600160a01b03821660009081526020819052604090208054820190555b816001600160a01b0316836001600160a01b03167fddf252ad1be2c89b69c2b068fc378daa952ba7f163c4a11628f55a4df523b3ef83604051610e0791815260200190565b60405180910390a3505050565b60005b83811015610e2f578181015183820152602001610e17565b50506000910152565b60008151808452610e50816020860160208601610e14565b601f01601f19169290920160200192915050565b602081526000610e776020830184610e38565b9392505050565b80356001600160a01b0381168114610e9557600080fd5b919050565b60008060408385031215610ead57600080fd5b610eb683610e7e565b946020939093013593505050565b600080600060608486031215610ed957600080fd5b610ee284610e7e565b9250610ef060208501610e7e565b9150604084013590509250925092565b600060208284031215610f1257600080fd5b5035919050565b600060208284031215610f2b57600080fd5b610e7782610e7e565b634e487b7160e01b600052604160045260246000fd5b600080600060608486031215610f5f57600080fd5b610f6884610e7e565b9250602084013567ffffffffffffffff80821115610f8557600080fd5b818601915086601f830112610f9957600080fd5b813581811115610fab57610fab610f34565b604051601f8201601f19908116603f01168101908382118183101715610fd357610fd3610f34565b81604052828152896020848701011115610fec57600080fd5b826020860160208301376000602084830101528096505050505050604084013590509250925092565b6000806040838503121561102857600080fd5b61103183610e7e565b915061103f60208401610e7e565b90509250929050565b600181811c9082168061105c57607f821691505b602082108103610b5457634e487b7160e01b600052602260045260246000fd5b634e487b7160e01b600052601160045260246000fd5b818103818111156104955761049561107c565b80820281158282048414176104955761049561107c565b6000826110d957634e487b7160e01b600052601260045260246000fd5b500490565b808201808211156104955761049561107c565b82815260406020820152600061110a6040830184610e38565b949350505050565b60008251611124818460208701610e14565b919091019291505056fea264697066735822122004facebf884cd81e210888046652dfc277152577da857970da79e85e0f1de26064736f6c63430008140033",
  "linkReferences": {},
  "deployedLinkReferences": {}
}